:100000000C942A000C9447000C9447000C94470071
:100010000C9447000C9447000C9447000C94470044
:100020000C9447000C94EB020C9447000C9447008E
:100030000C9447000C9447000C9447000C94470024
:100040000C9447000C9447000C9447000C94470014
:100050000C94470011241FBECFE5D8E0DEBFCDBF12
:1000600010E0A0E6B0E0E0E5F7E102C005900D92F7
:10007000A83DB107D9F720E0A8EDB0E001C01D927E
:10008000AA3DB207E1F70E94BE040C94A60B0C94A3
:10009000000040E064E083E00E94190140E063E07A
:1000A00083E00E94190140E063E082E00E941901B0
:1000B00040E064E082E00E94190140E065E082E0F7
:1000C0000E94190140E066E082E00E941901089553
:1000D00041E063E083E00E94970141E064E083E057
:1000E0000E94970140E063E082E00E94970140E0B7
:1000F00065E082E00E94970141E064E082E00E94B6
:10010000970141E066E082E00E949701089541E096
:1001100063E083E00E94970141E064E083E00E9495
:10012000970141E063E082E00E94970141E065E0D1
:1001300082E00E94970140E064E082E00E94970123
:1001400040E066E082E00E949701089540E063E0AD
:1001500083E00E94970140E064E083E00E94970101
:1001600040E063E082E00E94970140E065E082E0C9
:100170000E94970140E064E082E00E94970140E025
:1001800066E082E00E949701089540E065E083E028
:100190000E94190108958AE50E94650508958EE17F
:1001A0000E946505089580EA0E946505089541E072
:1001B00063E082E00E94970140E065E082E00E94F7
:1001C000970140E064E082E00E94970141E066E030
:1001D00082E00E94970181E090E00E9481050E94E8
:1001E000A60081E090E00E9481050E9468000895C9
:1001F00040E063E082E00E94970141E065E082E038
:100200000E94970141E064E082E00E94970140E093
:1002100066E082E00E94970181E090E00E94810503
:100220000E94A60081E090E00E9481050E94680083
:100230000895411138C0813091F028F08230D9F012
:10024000833029F16EC02AB381E090E002C0880FAC
:10025000991F6A95E2F7822B8ABB80E0089527B345
:1002600081E090E002C0880F991F6A95E2F7822B27
:1002700087BB80E0089524B381E090E002C0880F3E
:10028000991F6A95E2F7822B84BB80E0089521B321
:1002900081E090E002C0880F991F6A95E2F7822BF7
:1002A00081BB80E008954130F1F5813099F028F06C
:1002B0008230E9F0833041F138C02AB381E090E028
:1002C00002C0880F991F6A95E2F7809582238ABB46
:1002D00080E0089527B381E090E002C0880F991F65
:1002E0006A95E2F78095822387BB80E0089524B366
:1002F00081E090E002C0880F991F6A95E2F780952F
:10030000822384BB80E0089521B381E090E002C0A5
:10031000880F991F6A95E2F78095822381BB80E060
:10032000089581E0089581E0089581E008954130C5
:10033000C1F5813091F028F08230D9F0833029F175
:100340006EC02BB381E090E002C0880F991F6A95C0
:10035000E2F7822B8BBB80E0089528B381E090E028
:1003600002C0880F991F6A95E2F7822B88BB80E054
:10037000089525B381E090E002C0880F991F6A9527
:10038000E2F7822B85BB80E0089522B381E090E004
:1003900002C0880F991F6A95E2F7822B82BB80E02A
:1003A000089541113EC0813099F028F08230E9F083
:1003B000833041F138C02BB381E090E002C0880F58
:1003C000991F6A95E2F7809582238BBB80E00895A0
:1003D00028B381E090E002C0880F991F6A95E2F788
:1003E0008095822388BB80E0089525B381E090E06A
:1003F00002C0880F991F6A95E2F78095822385BB1A
:1004000080E0089522B381E090E002C0880F991F38
:100410006A95E2F78095822382BB80E0089581E0AF
:10042000089581E0089581E00895CF93C82F40E0BA
:1004300061E081E00E94970140E062E081E00E947B
:1004400097018C2F807F8BBB41E063E081E00E94AD
:10045000970185E38A95F1F7000040E063E081E0D1
:100460000E9497018FE891E00197F1F700C000002A
:10047000C295C07FCBBB41E063E081E00E94970161
:1004800095E39A95F1F7000040E063E081E00E9477
:1004900097018FE891E00197F1F700C00000CF913C
:1004A0000895CF93C82F41E061E081E00E94970159
:1004B00040E062E081E00E9497018C2F807F8BBB3F
:1004C00041E063E081E00E94970185E38A95F1F7BE
:1004D000000040E063E081E00E9497018FE891E036
:1004E0000197F1F700C00000C295C07FCBBB41E08F
:1004F00063E081E00E94970195E39A95F1F700008F
:1005000040E063E081E00E9497018FE891E001976D
:10051000F1F700C00000CF9108958FEF8ABB40E053
:1005200061E081E00E94190140E062E081E00E9408
:10053000190140E063E081E00E9419012FEF83EF91
:1005400091E0215080409040E1F700C0000083E33B
:100550000E94150282E30E94150288E20E941502A1
:100560008FE99FE00197F1F700C000008FE00E9443
:1005700015028FE99FE00197F1F700C0000081E0CC
:100580000E9415028FE39FE10197F1F700C0000080
:1005900086E00E94150208950F931F93CF938C015C
:1005A000C0E003C0CF5F0E945102F801EC0FF11DC3
:1005B00080818111F7CFCF911F910F910895811103
:1005C00005C080E8860F0E941502089580EC860F12
:1005D0000E94150208951F920F920FB60F921124D8
:1005E0008F939F938091D8009091D900019690931A
:1005F000D9008093D8009F918F910F900FBE0F90DC
:100600001F901895CF93DF93EC018EB58F7E8EBD32
:100610008EB5877F8EBD8FB58D7F8FBD41E061E048
:1006200082E00E94970185E38A95F1F7000040E09F
:1006300061E082E00E9497011DBC1CBC81E48EBD7C
:1006400080E288BF84E088BF08B605FEFDCF1DBCF0
:100650001CBC81E08EBD80E288BF84E088BF109220
:10066000D9001092D80008B605FEFDCF6CB57DB557
:1006700080E090E00E94720729E23CE349EE53E4F7
:100680000E94C80620E030E040E05FE30E942708B7
:10069000688379838A839B83DF91CF9108954F92FA
:1006A0005F926F927F928F929F92AF92BF92CF9202
:1006B000DF92EF92FF920F931F93CF93DF934B0143
:1006C0005C016A01C22FD32F0E943A072B013C0123
:1006D000072E000C880B990B0E9472079B01AC013E
:1006E000C501B4010E9456064B015C015F924F9216
:1006F00080E690E09F938F93DF93CF93DF92CF922A
:100700000E94AE08EC018DB79EB708960FB6F8941C
:100710009EBF0FBE8DBF1016110634F4F601EC0F0C
:10072000FD1F8EE280832196E12CF12C24C020E075
:1007300030E040E251E4C501B4010E9427084B01BA
:100740005C010E943A07F601EC0FFD1F20E3260F23
:1007500020832196072E000C880B990B0E947207AC
:100760009B01AC01C501B4010E9456064B015C011E
:100770009FEFE91AF90AE016F106CCF2CC0DDD1D67
:100780001882DF91CF911F910F91FF90EF90DF9032
:10079000CF90BF90AF909F908F907F906F905F9021
:1007A0004F900895CF92DF92EF92FF920F931F9395
:1007B000CF93DF93CDB7DEB76C970FB6F894DEBF5B
:1007C0000FBECDBF0E94A60081E090E00E9481058F
:1007D00081E00E94150284E190E00E94E30583E637
:1007E00090E00E94CC020E94CF0081E090E00E9445
:1007F0008105CE0145960E94020360E082E00E94DE
:10080000DF026D897E898F89988D02E010E024E1F6
:1008100030E0AE014F5F5F4F0E944F03CE01019663
:100820000E94CC0281E790E00E94CC0281E090E03F
:100830000E94810581E00E94150284E190E00E94FF
:10084000E30585E790E00E94CC020E94D30081E09E
:1008500090E00E948105CE0149960E94020360E06B
:1008600082E00E94DF02698D7A8D8B8D9C8D24E160
:1008700030E0AE014F5F5F4F0E944F03CE01019603
:100880000E94CC0281E790E00E94CC0281E090E0DF
:100890000E9481050E94CB0084EF91E00E94E30555
:1008A000CD88DE88EF88F88C20E030E040EA51E423
:1008B000C701B6010E94C3068823E4F4698D7A8DCE
:1008C0008B8D9C8D20E030E040EA51E40E94C3060D
:1008D000882384F481E00E94150284E190E00E9464
:1008E000E30582E890E00E94CC0284E090E00E9460
:1008F000810535C0C701B6010E943A078B01698D99
:100900007A8D8B8D9C8D0E943A076017710774F465
:1009100081E00E94150284E190E00E94E30587E9EE
:1009200090E00E94CC020E94D70019C0061717075A
:1009300074F481E00E94150284E190E00E94E305D6
:1009400084EA90E00E94CC020E94F80008C00E9455
:10095000870088EE93E00E94E3050E94A6006C9653
:100960000FB6F894DEBF0FBECDBFDF91CF911F91C0
:100970000F91FF90EF90DF90CF900895CF93DF938A
:10098000CDB7DEB72E970FB6F894DEBF0FBECDBF42
:100990000E947B050E948D020E94C5000E944900B2
:1009A00083E090E00E94810580EB90E00E94CC0201
:1009B00082E090E00E9481058DEC9CECACE8BFE306
:1009C0008B879C87AD87BE8740E061E082E00E9414
:1009D000190141E066E083E00E949701789484E089
:1009E00089BF1FBC40E067E082E00E94190141E03E
:1009F00067E082E00E9497010E94CB0081E090E0D6
:100A00000E94810581E00E94150284E190E00E942D
:100A1000E30589EB90E00E94CC02CE010B960E9488
:100A2000020384E690E00E94E30560E082E00E9419
:100A3000DF026B857C858D859E8502E010E02AE0D3
:100A400030E0AE014F5F5F4F0E944F03CE01019631
:100A50000E94CC0281E790E00E94CC026B857C85ED
:100A60008D859E850E943A07643171051CF40E94B1
:100A7000D203C8CF81E00E94150284E190E00E9479
:100A8000E3050E94680089EC90E00E94CC0260E0DF
:100A900082E00E94DF026B857C858D859E8502E069
:100AA00010E02AE030E0AE014F5F5F4F0E944F033D
:100AB000CE0101960E94CC0281E790E00E94CC0218
:100AC00081E090E00E9481059DCF682F70E080E07A
:100AD00090E00E94720726E636E646E251E40E9464
:100AE00027080E944107CB01885F9D4F60E27EE4AA
:100AF0000E943F06089583B7837B82608E7F83BF09
:100B000008958F929F92AF92BF92CF92DF92EF9211
:100B1000FF92CF93DF935C01DC0120E432E44FE0ED
:100B200050E00E9494080E94720720E030E040E00C
:100B30005CE30E9427080E9441076B017C01EB01E6
:100B400080E492E4A89EB001A99E700DB89E700D3D
:100B50001124707877232CF4615071097F6F6F5FD7
:100B60007F4F072E000C880B990B0E9472079B0188
:100B7000AC010E9457064B015C010E94410762BF15
:100B800020E030E0A901C501B4010E942208181636
:100B900014F4E601219620E030E007C088B780FF1A
:100BA000FDCF816088BF2F5F3F4F2C173D07B0F30B
:100BB000DF91CF91FF90EF90DF90CF90BF90AF90FB
:100BC0009F908F9008958F929F92AF92BF92CF92F5
:100BD000DF92EF92FF920F931F93CF93DF938C01DD
:100BE000BC0180E090E00E9470072FE632E143E014
:100BF0005EE30E94C8060E9441076B017C01EB0185
:100C0000B801707877232CF4615071097F6F6F5FA2
:100C10007F4F072E000C880B990B0E9472072FEF55
:100C20003FEF49EF54E40E9427084B015C010E940A
:100C3000410762BF20E030E0A901C501B4010E9474
:100C40002208181614F4E601219620E030E007C0CF
:100C500088B780FFFDCF816088BF2F5F3F4F2C1783
:100C60003D07B0F3DF91CF911F910F91FF90EF906F
:100C7000DF90CF90BF90AF909F908F9008952FB549
:100C800020682F7B3EB5386122602E7F2FBD232F39
:100C90002B7F23602EBD27E833E137BD26BD969517
:100CA0008795969587959BBD8ABD08955058BB271B
:100CB000AA270E946E060C94E8070E94DA0738F013
:100CC0000E94E10720F039F49F3F19F426F40C94B8
:100CD000D7070EF4E095E7FB0C94D107E92F0E94AB
:100CE000F90758F3BA17620773078407950720F0CE
:100CF00079F4A6F50C941B080EF4E0950B2EBA2F90
:100D0000A02D0B01B90190010C01CA01A001112411
:100D1000FF27591B99F0593F50F4503E68F11A16BD
:100D2000F040A22F232F342F4427585FF3CF46954E
:100D300037952795A795F0405395C9F77EF41F1670
:100D4000BA0B620B730B840BBAF09150A1F0FF0F3A
:100D5000BB1F661F771F881FC2F70EC0BA0F621F26
:100D6000731F841F48F4879577956795B795F79516
:100D70009E3F08F0B0CF9395880F08F09927EE0FAB
:100D80009795879508950E94AD0708F481E008952E
:100D90000E94DC060C94E8070E94E10758F00E94CC
:100DA000DA0740F029F45F3F29F00C94D107511184
:100DB0000C941C080C94D7070E94F90768F3992338
:100DC000B1F3552391F3951B550BBB27AA27621747
:100DD0007307840738F09F5F5F4F220F331F441F54
:100DE000AA1FA9F335D00E2E3AF0E0E832D0915088
:100DF0005040E695001CCAF72BD0FE2F29D0660F75
:100E0000771F881FBB1F261737074807AB07B0E8B7
:100E100009F0BB0B802DBF01FF2793585F4F3AF0BD
:100E20009E3F510578F00C94D1070C941C085F3F4D
:100E3000E4F3983ED4F3869577956795B795F79543
:100E40009F5FC9F7880F911D9695879597F908952B
:100E5000E1E0660F771F881FBB1F621773078407C7
:100E6000BA0720F0621B730B840BBA0BEE1F88F7D6
:100E7000E09508950E9441076894B1110C941C08F4
:100E800008950E94010888F09F5798F0B92F99277C
:100E9000B751B0F0E1F0660F771F881F991F1AF065
:100EA000BA95C9F714C0B13091F00E941B08B1E0A7
:100EB00008950C941B08672F782F8827B85F39F0A6
:100EC000B93FCCF3869577956795B395D9F73EF4FE
:100ED00090958095709561957F4F8F4F9F4F0895A6
:100EE000E89409C097FB3EF49095809570956195C4
:100EF0007F4F8F4F9F4F9923A9F0F92F96E9BB277A
:100F00009395F695879577956795B795F111F8CFF5
:100F1000FAF4BB0F11F460FF1BC06F5F7F4F8F4F60
:100F20009F4F16C0882311F096E911C0772321F056
:100F30009EE8872F762F05C0662371F096E8862FEE
:100F400070E060E02AF09A95660F771F881FDAF745
:100F5000880F9695879597F90895990F0008550F72
:100F6000AA0BE0E8FEEF16161706E807F907C0F02F
:100F700012161306E407F50798F0621B730B840B37
:100F8000950B39F40A2661F0232B242B252B21F411
:100F900008950A2609F4A140A6958FEF811D811DB1
:100FA000089597F99F6780E870E060E008959FEFEB
:100FB00080EC089500240A941616170618060906F0
:100FC000089500240A9412161306140605060895BF
:100FD000092E0394000C11F4882352F0BB0F40F447
:100FE000BF2B11F460FF04C06F5F7F4F8F4F9F4F87
:100FF000089557FD9058440F551F59F05F3F71F009
:101000004795880F97FB991F61F09F3F79F087956F
:101010000895121613061406551FF2CF4695F1DFF8
:1010200008C0161617061806991FF1CF8695710588
:10103000610508940895E894BB2766277727CB01BC
:1010400097F908950E94AD0708F48FEF08950E9464
:101050003A080C94E8070E94DA0738F00E94E1078A
:1010600020F0952311F00C94D1070C94D70711248C
:101070000C941C080E94F90770F3959FC1F3950F1B
:1010800050E0551F629FF001729FBB27F00DB11D0C
:10109000639FAA27F00DB11DAA1F649F6627B00D9C
:1010A000A11D661F829F2227B00DA11D621F739F85
:1010B000B00DA11D621F839FA00D611D221F749F93
:1010C0003327A00D611D231F849F600D211D822FDA
:1010D000762F6A2F11249F5750409AF0F1F0882301
:1010E0004AF0EE0FFF1FBB1F661F771F881F91502E
:1010F0005040A9F79E3F510580F00C94D1070C9405
:101100001C085F3FE4F3983ED4F386957795679586
:10111000B795F795E7959F5FC1F7FE2B880F911D57
:101120009695879597F908950E949F08A59F900D21
:10113000B49F900DA49F800D911D11240895A29F2E
:10114000B001B39FC001A39F700D811D1124911D9B
:10115000B29F700D811D1124911D0895AEE0B0E085
:10116000E4EBF8E00C947D0B0D891E898F89988D36
:1011700026E02C831A83098397FF02C080E090E861
:1011800001979E838D83AE01455E5F4F698D7A8D99
:10119000CE0101960E94DE084D815E8157FD0AC096
:1011A0002F813885421753070CF49A01F801E20F9A
:1011B000F31F10822E96E4E00C94990BABE0B0E0A4
:1011C000E4EEF8E00C946F0B6C017B018A01FC01EA
:1011D00017821682838181FFCCC1CE0101963C012A
:1011E000F6019381F70193FD859193FF81917F0132
:1011F000882309F4BAC1853239F493FD859193FFB0
:1012000081917F01853229F4B60190E00E94D50AD0
:10121000E7CF912C212C312CFFE1F315D8F08B3244
:1012200079F038F4803279F08332A1F4232D2061F3
:101230001DC08D3261F0803369F4232D216016C00A
:10124000832D8260382EE32DE4603E2E2AC0F32DDC
:10125000F8601DC037FC2DC020ED280F2A3040F06B
:101260008E32B9F436FC81C1232D2064322E19C090
:1012700036FE06C08AE0989E200D1124922E11C0E1
:10128000EAE02E9E200D1124222EF32DF0623F2E37
:1012900008C08C3621F4832D8068382E02C0883631
:1012A00041F4F70193FD859193FF81917F018111B5
:1012B000B3CF982F9F7D9554933028F40C5F1F4F28
:1012C0009FE399830DC0833631F0833771F0833506
:1012D00009F059C021C0F801808189830E5F1F4F3A
:1012E00088248394912C530113C02801F2E04F0EFF
:1012F000511CF801A080B18036FE03C0692D70E05A
:1013000002C06FEF7FEFC5010E94CA0A4C01820143
:10131000F32DFF773F2E16C0280122E0420E511C0C
:10132000F801A080B18036FE03C0692D70E002C0D4
:101330006FEF7FEFC5010E94BF0A4C01F32DF068EB
:101340003F2E820133FC1BC0822D90E08816990647
:10135000B0F4B60180E290E00E94D50A2A94F4CF5E
:10136000F50137FC859137FE81915F01B60190E070
:101370000E94D50A21102A9421E0821A9108811432
:10138000910471F7E8C0843611F0893641F5F8010F
:1013900037FE07C060817181828193810C5F1F4F8E
:1013A00008C060817181072E000C880B990B0E5FBD
:1013B0001F4FF32DFF763F2E97FF09C09095809524
:1013C000709561957F4F8F4F9F4FF0683F2E2AE0B9
:1013D00030E0A3010E94110B882E861845C0853786
:1013E00031F4232D2F7EB22E2AE030E025C0932D3C
:1013F000997FB92E8F36C1F018F4883579F0B5C0D1
:10140000803719F0883721F0B0C0E92FE061BE2E97
:10141000B4FE0DC0FB2DF460BF2E09C034FE0AC01F
:10142000292F2660B22E06C028E030E005C020E15A
:1014300030E002C020E132E0F801B7FE07C0608171
:101440007181828193810C5F1F4F06C06081718121
:1014500080E090E00E5F1F4FA3010E94110B882EC9
:101460008618FB2DFF773F2E36FE0DC0232D2E7FD5
:10147000A22E891458F434FE0BC032FC09C0832D0F
:101480008E7EA82E05C0B82CA32C03C0B82C01C09A
:10149000B92CA4FE0FC0FE01E80DF11D8081803340
:1014A00021F49A2D997EA92E09C0A2FE06C0B394FC
:1014B000B39404C08A2D867809F0B394A3FC11C0BC
:1014C000A0FE06C0B21488F4280C922C9B180EC003
:1014D000B21460F4B60180E290E00E94D50AB394A1
:1014E000F7CFB21418F42B1802C0982C212CA4FEAC
:1014F00010C0B60180E390E00E94D50AA2FE17C09A
:10150000A1FC03C088E790E002C088E590E0B60146
:101510000CC08A2D867859F0A1FE02C08BE201C072
:1015200080E2A7FC8DE2B60190E00E94D50A891402
:1015300038F4B60180E390E00E94D50A9A94F7CF80
:101540008A94F301E80DF11D8081B60190E00E94BC
:10155000D50A8110F5CF222009F442CEB60180E2EF
:1015600090E00E94D50A2A94F6CFF60186819781F1
:1015700002C08FEF9FEF2B96E2E10C948B0BFC01E6
:101580000590615070400110D8F7809590958E0FAE
:101590009F1F0895FC016150704001900110D8F721
:1015A000809590958E0F9F1F08950F931F93CF9353
:1015B000DF93FB01238121FD03C08FEF9FEF2CC040
:1015C00022FF16C046815781248135814217530777
:1015D00044F4A081B1819D012F5F3F4F318320836F
:1015E0008C93268137812F5F3F4F3783268314C02A
:1015F0008B01EC01FB010084F185E02D0995892B1D
:10160000E1F6D80116968D919C9117970196179641
:101610009C938E931697CE01DF91CF911F910F91DE
:101620000895FA01AA27283051F1203181F1E89478
:101630006F936E7F6E5F7F4F8F4F9F4FAF4FB1E0C5
:101640003ED0B4E03CD0670F781F891F9A1FA11DC0
:10165000680F791F8A1F911DA11D6A0F711D811DC1
:10166000911DA11D20D009F468943F912AE0269F86
:1016700011243019305D3193DEF6CF010895462FE5
:101680004770405D4193B3E00FD0C9F7F6CF462FC6
:101690004F70405D4A3318F0495D31FD405241932F
:1016A00002D0A9F7EACFB4E0A695979587957795EC
:1016B0006795BA95C9F700976105710508959B0173
:1016C000AC010A2E06945795479537952795BA95FC
:1016D000C9F7620F731F841F951FA01D08952F92D5
:1016E0003F924F925F926F927F928F929F92AF92B2
:1016F000BF92CF92DF92EF92FF920F931F93CF93FF
:10170000DF93CDB7DEB7CA1BDB0B0FB6F894DEBF95
:101710000FBECDBF09942A88398848885F846E84BB
:101720007D848C849B84AA84B984C884DF80EE8005
:10173000FD800C811B81AA81B981CE0FD11D0FB60E
:10174000F894DEBF0FBECDBFED010895F894FFCF32
:101750002564004C6F6F6B696E672052696768740F
:101760000020434D004C6F6F6B696E67204C6566BF
:101770007400414C4C20574159532041524520425E
:101780004C4F434B4544005455524E494720524913
:10179000474854005455524E4947204C4546540042
:1017A0005354415254494E47004C4F4F4B494E47BA
:1017B00020464F5257415244004D4F56494E472004
:0817C000464F5257415244000C
:00000001FF
